:020000040800F2
:1000000000000220A1180008D5170008E317000817
:10001000E9170008EF170008F517000800000000B6
:10002000000000000000000000000000FB170008B6
:10003000091800080000000017180008251800081B
:10004000F1180008F1180008F1180008F11800086C
:10005000F1180008F1180008F1180008F11800085C
:10006000F1180008F1180008F1180008F11800084C
:10007000F1180008F1180008F1180008F11800083C
:10008000F1180008F1180008F1180008F11800082C
:10009000F1180008F1180008F1180008F11800081C
:1000A000F1180008F1180008F1180008F11800080C
:1000B000F1180008F1180008F1180008F1180008FC
:1000C000F1180008F1180008F1180008F1180008EC
:1000D000F1180008F1180008F1180008F1180008DC
:1000E000F1180008F1180008F1180008F1180008CC
:1000F000F1180008F1180008F1180008F1180008BC
:10010000F1180008F1180008F1180008F1180008AB
:10011000F1180008F1180008F1180008F11800089B
:10012000F1180008F1180008F1180008F11800088B
:10013000F11800080000000000000000F11800089D
:10014000F1180008F1180008F1180008F11800086B
:10015000F1180008F1180008F1180008F11800085B
:10016000F1180008F1180008F1180008F11800084B
:10017000F1180008F1180008F1180008000000004C
:1001800000000000F118000800000000000000005E
:10019000F11800080000000000000000F11800083D
:1001A000000000000000000000000000F11800083E
:1001B000F1180008F1180008F1180008F1180008FB
:0401C000F11800082A
:1001C40010B5054C237833B9044B13B10448AFF38D
:1001D40000800123237010BD0C00002000000000EB
:1001E4003C19000808B5034B1BB103490348AFF39E
:1001F400008008BD00000000100000203C19000829
:1002040053B94AB9002908BF00281CBF4FF0FF3179
:100214004FF0FF3000F07AB9ADF1080C6DE904CE6F
:1002240000F006F8DDF804E0DDE9022304B07047CD
:100234002DE9F0478C460D460446089E002B51D10B
:100244008A4217466DD9B2FA82FEBEF1000F0BD076
:10025400CEF1200C01FA0EF520FA0CFC02FA0EF78E
:100264004CEA050C00FA0EF44FEA174A250CBCFBC5
:10027400FAF81FFA87F90AFB18CC45EA0C4508FB83
:1002840009F3AB420AD9ED1908F1FF3280F023815A
:10029400AB4240F22081A8F102083D44ED1AA4B219
:1002A400B5FBFAF00AFB105544EA054400FB09F9D2
:1002B400A14509D9E41900F1FF3380F00A81A14571
:1002C40040F2078102383C44A4EB090440EA0840A8
:1002D4000021002E61D024FA0EF4002334607360F0
:1002E400BDE8F0878B4207D9002E54D0002186E860
:1002F40021000846BDE8F087B3FA83F1002940F0F5
:100304008E80AB4202D3824200F2FA80841A65EBFB
:1003140003050120AC46002E3FD086E81010BDE84E
:10032400F08712B90127B7FBF2F7B7FA87FEBEF1DF
:10033400000F34D1EB1B3A0C1FFA87FC0121B3FBED
:10034400F2F8250C02FB183345EA03450CFB08F3CD
:10035400AB4207D9ED1908F1FF3002D2AB4200F2EB
:10036400D1808046ED1AA3B2B5FBF2F002FB105522
:1003740043EA05440CFB00FCA44507D9E41900F149
:10038400FF3302D2A44500F2B8801846A4EB0C0453
:1003940040EA08409DE731463046BDE8F087CEF19B
:1003A400200405FA0EF307FA0EF720FA04F83A0CC3
:1003B40025FA04F448EA0308B4FBF2F14FEA1845BD
:1003C40002FB11441FFA87FC45EA044501FB0CF3C8
:1003D400AB4200FA0EF409D9ED1901F1FF3080F0B7
:1003E4008A80AB4240F2878002393D44EB1A1FFAFF
:1003F40088F5B3FBF2F002FB103345EA034500FB3A
:100404000CF3AB4207D9ED1900F1FF386FD2AB42C0
:100414006DD902383D44EB1A40EA01418FE7C1F13E
:10042400200722FA07F88B4005FA01F448EA03038F
:1004340020FA07FE4FEA134CFD404EEA040EB5FBCA
:10044400FCF94FEA1E440CFB19551FFA83F844EAE1
:10045400054509FB08F4AC4202FA01F200FA01FA7C
:1004640008D9ED1809F1FF3043D2AC4241D9A9F1C2
:1004740002091D442D1B1FFA8EFEB5FBFCF00CFB7C
:1004840010554EEA054400FB08F8A04507D9E418C6
:1004940000F1FF3529D2A04527D902381C4440EA8F
:1004A4000940A4EB0804A0FB02894C45C6464D460E
:1004B40015D312D056B1BAEB0E0364EB050404FA5B
:1004C40007F7CB401F43CC40376074600021BDE880
:1004D400F0871846F8E69046E0E6C245EAD2B8EB63
:1004E400020E69EB03050138E4E72846D7E74046E6
:1004F40091E78146BEE7014678E702383C4445E788
:10050400084608E7A8F102083D442BE7704700BFFE
:1005140080B500AF0E4A0E4B1B6843F400731360A2
:100524000B4A0B4B1B6843F480631360084A084B67
:100534001B6843F480731360032000F02DF900203E
:1005440000F008F801F0F2F80023184680BD00BF5F
:10055400003C024080B582B000AF7860124B1A684C
:10056400124B1B7819464FF47A73B3FBF1F3B2FBC9
:10057400F3F3184600F037F90346002B01D00123AA
:100584000EE07B680F2B0AD8002279684FF0FF3009
:1005940000F00DF9064A7B681360002300E0012394
:1005A40018460837BD4680BD08000020040000201E
:1005B4000000002080B400AF064B1B781A46064B9F
:1005C4001B681344044A136000BFBD465DF8047BF6
:1005D400704700BF040000202800002080B400AF52
:1005E400034B1B681846BD465DF8047B704700BF8B
:1005F4002800002080B584B000AF7860FFF7EEFFDC
:10060400B8607B68FB60FB68B3F1FF3F05D0094B22
:100614001B781A46FB681344FB6000BFFFF7DEFF3C
:100624000246BB68D21AFB689A42F7D300BF103760
:10063400BD4680BD0400002080B485B000AF786062
:100644007B6803F00703FB600C4BDB68BB60BA6894
:100654004FF6FF031340BB60FB681A02BB681343E9
:1006640043F0BF6343F40033BB60044ABB68D36008
:1006740000BF1437BD465DF8047B704700ED00E011
:1006840080B400AF044BDB681B0A03F00703184671
:10069400BD465DF8047B704700ED00E080B483B094
:1006A40000AF03463960FB7197F90730002B0BDA72
:1006B4000D49FB7903F00F03043B3A68D2B21201EF
:1006C400D2B20B441A7609E0084997F907303A6820
:1006D400D2B21201D2B20B4483F8002300BF0C370C
:1006E400BD465DF8047B704700ED00E000E100E0EA
:1006F40080B489B000AFF860B9607A60FB6803F039
:100704000703FB61FB69C3F10703042B28BF042320
:10071400BB61FB690433062B02D9FB69033B00E090
:1007240000237B610122BB6902FA03F35A1EBB68F2
:100734001A407B699A4001217B6901FA03F3591E2F
:100744007B680B40134318462437BD465DF8047B91
:100754007047000080B582B000AF78607B68013BD1
:10076400B3F1807F01D301230FE00A4A7B68013B88
:1007740053600F214FF0FF30FFF790FF054B00222D
:100784009A60044B07221A60002318460837BD46B6
:1007940080BD00BF10E000E080B582B000AF78609B
:1007A4007868FFF749FF00BF0837BD4680BD80B5B4
:1007B40086B000AF0346B9607A60FB7300237B61A7
:1007C400FFF75EFF78617A68B9687869FFF790FF90
:1007D400024697F90F3011461846FFF75FFF00BF36
:1007E4001837BD4680BD80B582B000AF78607868A8
:1007F400FFF7B0FF034618460837BD4680BD00002A
:1008040080B483B000AF78607B68042B06D1094ABA
:10081400084B1B6843F00403136005E0054A054BCD
:100824001B6823F00403136000BF0C37BD465DF85A
:10083400047B704710E000E080B500AF00F002F8E0
:1008440000BF80BD80B400AF00BFBD465DF8047B2F
:100854007047000080B489B000AF7860396000232D
:100864007B6100233B610023BB610023FB6165E1E5
:100874000122FB6902FA03F37B613B681A687B6916
:1008840013403B613A697B699A4240F054813B686A
:100894005B68022B03D03B685B68122B23D1FB6996
:1008A400DA087B68083253F82230BB61FB6903F035
:1008B40007039B000F2202FA03F3DB43BA691340D8
:1008C400BB613B681A69FB6903F007039B0002FAEA
:1008D40003F3BA691343BB61FB69DA087B68083226
:1008E400B96943F822107B681B68BB61FB695B0034
:1008F400032202FA03F3DB43BA691340BB613B688A
:100904005B6803F00302FB695B0002FA03F3BA6954
:100914001343BB617B68BA691A603B685B68012B4F
:100924000BD03B685B68022B07D03B685B68112BDC
:1009340003D03B685B68122B30D17B689B68BB613A
:10094400FB695B00032202FA03F3DB43BA69134039
:10095400BB613B68DA68FB695B0002FA03F3BA69BE
:100964001343BB617B68BA699A607B685B68BB614F
:100974000122FB6902FA03F3DB43BA691340BB614A
:100984003B685B681B0903F00102FB6902FA03F38D
:10099400BA691343BB617B68BA695A607B68DB68D8
:1009A400BB61FB695B00032202FA03F3DB43BA6910
:1009B4001340BB613B689A68FB695B0002FA03F36E
:1009C400BA691343BB617B68BA69DA603B685B68E8
:1009D40003F08053002B00F0AE800023FB605C4AE0
:1009E4005B4B5B6C43F480435364594B5B6C03F483
:1009F4008043FB60FB68574AFB699B08023352F84B
:100A04002330BB61FB6903F003039B000F2202FA4E
:100A140003F3DB43BA691340BB617B684E4A9342DC
:100A240025D07B684D4A93421FD07B684C4A934241
:100A340019D07B684B4A934213D07B684A4A93424D
:100A44000DD07B68494A934207D07B68484A934259
:100A540001D106230CE007230AE0052308E0042360
:100A640006E0032304E0022302E0012300E0002364
:100A7400FA6902F0030292009340BA691343BB611E
:100A84003449FB699B080233BA6941F82320394B86
:100A94001B68BB613B69DB43BA691340BB613B68BC
:100AA4005B6803F48033002B03D0BA693B691343BA
:100AB400BB61304ABB6913602E4B5B68BB613B6909
:100AC400DB43BA691340BB613B685B6803F40033E2
:100AD400002B03D0BA693B691343BB61254ABB6948
:100AE4005360244B9B68BB613B69DB43BA69134089
:100AF400BB613B685B6803F48013002B03D0BA69C5
:100B04003B691343BB611B4ABB699360194BDB68A8
:100B1400BB613B69DB43BA691340BB613B685B68FB
:100B240003F40013002B03D0BA693B691343BB6180
:100B3400104ABB69D360FB690133FB61FB690F2B6E
:100B44007FF696AE00BF2437BD465DF8047B704740
:100B54000038024000380140000002400004024016
:100B640000080240000C0240001002400014024041
:100B740000180240003C014080B483B000AF7860AC
:100B84000B467B8013467B707B78002B03D07A88DE
:100B94007B689A6103E07B881A047B689A6100BFD2
:100BA4000C37BD465DF8047B704780B483B000AF5A
:100BB40078600B467B807B685A697B885A407B68E7
:100BC4005A6100BF0C37BD465DF8047B70470000D6
:100BD40080B584B000AF786039607B68002B01D1A8
:100BE4000123CAE0674B1B6803F00F023B689A427B
:100BF4000CD2644B3A68D2B21A70624B1B6803F091
:100C04000F023B689A4201D00123B6E07B681B685F
:100C140003F00203002B20D07B681B6803F004035D
:100C2400002B05D0584A584B9B6843F4E05393601B
:100C34007B681B6803F00803002B05D0524A524B13
:100C44009B6843F4604393604F494F4B9B6823F088
:100C5400F0027B689B6813438B607B681B6803F01E
:100C64000103002B44D07B685B68012B07D1464B02
:100C74001B6803F40033002B19D101237DE07B684A
:100C84005B68022B03D07B685B68032B07D13E4B68
:100C94001B6803F00073002B09D101236DE03A4B6C
:100CA4001B6803F00203002B01D1012365E03649E0
:100CB400354B9B6823F003027B685B6813438B60AE
:100CC400FFF78CFCF8600AE0FFF788FC0246FB683B
:100CD400D31A41F28832934201D903234DE02A4BBF
:100CE4009B6803F00C027B685B689B009A42EBD123
:100CF400244B1B6803F00F023B689A420CD9214B2A
:100D04003A68D2B21A701F4B1B6803F00F023B689B
:100D14009A4201D0012330E07B681B6803F004038E
:100D2400002B08D01849184B9B6823F4E0527B68C9
:100D3400DB6813438B607B681B6803F00803002B9C
:100D440009D01149104B9B6823F460427B681B69EE
:100D5400DB0013438B6000F029F801460A4B9B68C3
:100D64001B0903F00F03094AD35C21FA03F3084A71
:100D740013600020FFF7EEFB002318461037BD4632
:100D840080BD00BF003C02400038024064190008E6
:100D94000800002080B400AF034B1B681846BD4612
:100DA4005DF8047B704700BF080000202DE9F04F78
:100DB400A1B000AF00237B670023FB6700233B67E0
:100DC4000023FB660023BB67A04B9B6803F00C0366
:100DD4000C2B00F2938101A252F823F0150E0008A7
:100DE4000111000801110008011100081B0E000880
:100DF400011100080111000801110008210E00086A
:100E04000111000801110008011100089D0F0008DC
:100E14008F4BBB6775E18F4BBB6772E18B4B5B6894
:100E240003F03F037B67894B5B6803F48003002B6B
:100E340056D0864B5B689B094FF0000440F2FF11CB
:100E44004FF0000201EA030102EA04020B461446D1
:100E540060017866786E40EAD36078665B013B6631
:100E6400D7E918345B1A64EB0204A001F865F86D45
:100E740040EA9360F8659801B865D7E91656ED1A0B
:100E840066EB04063346DB007B657B6D284643EA4C
:100E940050737B652B46DB003B65D7E914341D4654
:100EA40026466B1846EB0204184621460B465B02A5
:100EB400FB64FB6C024643EAD253FB6403465B02C9
:100EC400BB64D7E91234184621467B6F4FF0000407
:100ED4001A462346FFF794F903460C46FB674DE098
:100EE4005A4B5B689B094FF0000440F2FF114FF02E
:100EF400000201EA030102EA04020B4614466001FF
:100F04007864786C40EAD36078645B013B64D7E929
:100F140010345B1A64EB02044FEA841B4BEA936BB4
:100F24004FEA831ABAEB030A6BEB040B4FEACB03C9
:100F3400FB63FB6B43EA5A73FB634FEACA03BB636D
:100F4400D7E90EAB1AEB010A4BEB020B4FEA8B23EA
:100F54007B637B6B43EA9A537B634FEA8A233B634D
:100F6400D7E90CAB504659467B6F4FF000041A4644
:100F74002346FFF745F903460C46FB67334B5B6892
:100F84001B0C03F0030301335B003B67FA6F3B6FF9
:100F9400B2FBF3F3BB67B4E02C4B5B6803F03F0395
:100FA4007B672A4B5B6803F48003002B54D0274BE8
:100FB4005B689B094FF0000440F2FF114FF0000200
:100FC40001EA030102EA04020B4614466001F862D6
:100FD400F86A40EAD360F8625B01BB62D7E90A347D
:100FE4005B1A64EB02044FEA841949EA93694FEAF5
:100FF4008318B8EB030869EB04094FEAC9037B6261
:101004007B6A43EA58737B624FEAC8033B62D7E9C1
:10101400088918EB010849EB02094FEA4923FB61EF
:10102400FB6943EAD853FB614FEA4823BB61D7E924
:101034000689404649467B6F4FF000041A46234612
:10104400FFF7DEF803460C46FB674BE0003802402E
:101054000024F40000127A002D4B5B689B094FF0CA
:10106400000440F2FF114FF0000201EA030102EA1A
:1010740004020B46144660017861786940EAD36043
:1010840078615B013B61D7E904345B1A64EB0204C9
:10109400A60146EA93669D01ED1A66EB0406F30089
:1010A400FB60FB6843EA5573FB60EB00BB60D7E968
:1010B40002566D1846EB0206B3027B607B6843EA76
:1010C40095537B60AB023B6097E86000284631464D
:1010D4007B6F4FF000041A462346FFF791F803464E
:1010E4000C46FB670A4B5B681B0F03F00703FB66A8
:1010F400FA6FFB6EB2FBF3F3BB6702E0054BBB6711
:1011040000BFBB6F18468437BD46BDE8F08F00BFF3
:10111400003802400024F40080B586B000AF786047
:1011240000233B617B681B6803F00103002B00F084
:101134008380954B9B6803F00C03042B19D0924BCE
:101144009B6803F00C03082B06D18F4B5B6803F4F8
:101154008003B3F5800F0CD08B4B9B6803F00C031A
:101164000C2B12D1884B5B6803F48003B3F5800F1A
:101174000BD1854B1B6803F40033002B5BD07B68D9
:101184005B68002B57D1012316E27B685B68B3F5DB
:10119400803F06D17C4A7C4B1B6843F48033136048
:1011A4001DE07B685B68B3F5A02F0CD1764A764BC3
:1011B4001B6843F480231360734A734B1B6843F426
:1011C400803313600BE0704A6F4B1B6823F4803349
:1011D40013606D4A6C4B1B6823F4802313607B6897
:1011E4005B68002B13D0FFF7F9F9386108E0FFF7CB
:1011F400F5F902463B69D31A642B01D90323DBE1D9
:10120400614B1B6803F40033002BF0D014E0FFF7AC
:10121400E5F9386108E0FFF7E1F902463B69D31AC2
:10122400642B01D90323C7E1574B1B6803F4003334
:10123400002BF0D100E000BF7B681B6803F00203C1
:10124400002B6FD0504B9B6803F00C03002B17D07E
:101254004D4B9B6803F00C03082B05D14A4B5B688C
:1012640003F48003002B0BD0474B9B6803F00C0363
:101274000C2B1CD1444B5B6803F48003002B16D168
:10128400414B1B6803F00203002B05D07B68DB682D
:10129400012B01D001238FE13B493B4B1B6823F019
:1012A400F8027B681B69DB0013430B603AE07B6840
:1012B400DB68002B20D0354B01221A60FFF78EF932
:1012C400386108E0FFF78AF902463B69D31A022B1A
:1012D40001D9032370E12C4B1B6803F00203002B9C
:1012E400F0D02949284B1B6823F0F8027B681B695E
:1012F400DB0013430B6015E0244B00221A60FFF758
:101304006DF9386108E0FFF769F902463B69D31AC1
:10131400022B01D903234FE11B4B1B6803F002038B
:10132400002BF0D17B681B6803F00803002B37D037
:101334007B685B69002B16D0154B01221A60FFF7FE
:101344004DF9386108E0FFF749F902463B69D31AC1
:10135400022B01D903232FE10B4B5B6F03F0020334
:10136400002BF0D01CE00A4B00221A60FFF736F97C
:1013740038610FE0FFF732F902463B69D31A022BBA
:1013840008D9032318E100BF003802400000474297
:10139400800E47428A4B5B6F03F00203002BE9D1B6
:1013A4007B681B6803F00403002B00F09780002384
:1013B400FB75834B1B6C03F08053002B0FD1002370
:1013C400FB607F4A7E4B1B6C43F0805313647C4B61
:1013D4001B6C03F08053FB60FB680123FB75794BA6
:1013E4001B6803F48073002B18D1764A754B1B6875
:1013F40043F480731360FFF7F1F8386108E0FFF7F6
:10140400EDF802463B69D31A022B01D90323D3E03A
:101414006C4B1B6803F48073002BF0D07B689B68D3
:10142400012B06D1664A664B1B6F43F00103136719
:101434001CE07B689B68052B0CD1614A604B1B6FD9
:1014440043F0040313675E4A5D4B1B6F43F00103D3
:1014540013670BE05A4A5A4B1B6F23F001031367BF
:10146400574A574B1B6F23F0040313677B689B6831
:10147400002B15D0FFF7B2F838610AE0FFF7AEF899
:1014840002463B69D31A41F28832934201D90323BD
:1014940092E04B4B1B6F03F00203002BEED014E0E1
:1014A400FFF79CF838610AE0FFF798F802463B69B9
:1014B400D31A41F28832934201D903237CE0404B92
:1014C4001B6F03F00203002BEED1FB7D012B05D132
:1014D4003B4A3B4B1B6C23F0805313647B689B6932
:1014E400002B68D0364B9B6803F00C03082B60D0AC
:1014F4007B689B69022B45D1334B00221A60FFF7AE
:101504006DF8386108E0FFF769F802463B69D31AC1
:10151400022B01D903234FE0294B1B6803F000730E
:10152400002BF0D126497B68DA697B681B6A1A4371
:101534007B685B6A9B011A437B689B6A5B08013B7F
:101544001B041A437B68DB6A1B061A437B681B6B0C
:101554001B0713434B601C4B01221A60FFF73EF834
:10156400386108E0FFF73AF802463B69D31A022BC8
:1015740001D9032320E0124B1B6803F00073002BF6
:10158400F0D018E0104B00221A60FFF727F83861FA
:1015940008E0FFF723F802463B69D31A022B01D96E
:1015A400032309E0064B1B6803F00073002BF0D102
:1015B40001E0012300E0002318461837BD4680BD32
:1015C40000380240007000406000474280B500AF20
:1015D400FEF79EFF00F00EF800F076F82021044894
:1015E400FFF7E3FA4FF4FA60FFF704F8F6E700BFF9
:1015F4000008024080B594B000AF00237B602E4AFF
:101604002D4B1B6C43F0805313642B4B1B6C03F06A
:1016140080537B607B6800233B60284A274B1B6810
:1016240043F440431360254B1B6803F440433B6081
:101634003B680223FB610123BB621023FB6200238E
:101644007B6307F11C031846FFF766FD0346002B76
:1016540003D08D211A4800F063F80F23BB600023E8
:10166400FB6000233B6100237B610023BB6107F126
:10167400080300211846FFF7ABFA0346002B03D0FA
:101684009B210F4800F04CF8FFF784FB02460D4BFA
:10169400A3FB02239B091846FFF7A5F80420FFF7D4
:1016A400AFF8002200214FF0FF30FFF780F800BFB1
:1016B4005037BD4680BD00BF003802400070004076
:1016C40054190008D34D621080B586B000AF0023D2
:1016D4003B60114A104B1B6B43F0040313630E4B26
:1016E4001B6B03F004033B603B68002220210B4882
:1016F400FFF742FA20237B600123BB600023FB60D9
:1017040000233B613B1D19460448FFF7A3F800BFC3
:101714001837BD4680BD00BF0038024000080240B3
:1017240080B483B000AF78603960FEE780B582B0E2
:1017340000AF00237B60254A244B5B6C43F4804359
:101744005364224B5B6C03F480437B607B6800230F
:101754003B601E4A1D4B1B6C43F0805313641B4BB0
:101764001B6C03F080533B603B680320FFF714F8C5
:10177400002200216FF00B00FFF719F8002200216E
:101784006FF00A00FFF713F8002200216FF0090040
:10179400FFF70DF8002200216FF00400FFF707F8AF
:1017A400002200216FF00300FFF701F8002200215E
:1017B4006FF00100FEF7FBFF002200214FF0FF3025
:1017C400FEF7F5FF00BF0837BD4680BD0038024074
:1017D40080B400AF00BFBD465DF8047B704780B4A1
:1017E40000AFFEE780B400AFFEE780B400AFFEE7D1
:1017F40080B400AFFEE780B400AF00BFBD465DF823
:10180400047B704780B400AF00BFBD465DF8047B25
:10181400704780B400AF00BFBD465DF8047B7047DD
:1018240080B500AFFEF7C6FEFFF706F800BF80BD27
:1018340080B400AF164A164BD3F8883043F47003D3
:10184400C2F88830134A134B1B6843F0010313603A
:10185400104B00229A600F4A0E4B1B6823F08473CE
:1018640023F4803313600B4B0B4A5A60094A094B2B
:101874001B6823F480231360064B0022DA60044BB8
:101884004FF000629A6000BFBD465DF8047B70476C
:1018940000ED00E00038024010300024DFF834D0BE
:1018A400002103E00C4B5B58435004310B480C4BB4
:1018B40042189A42F6D30B4A02E0002342F8043B52
:1018C400094B9A42F9D3FFF7B3FF00F011F8FFF781
:1018D4007DFE7047000002208419000800000020EB
:1018E4000C0000200C0000202C000020FEE700006B
:1018F40070B50D4E0D4CA41BA4100025A54209D1B2
:101904000B4E0C4C00F018F8A41BA4100025A542A3
:1019140005D170BD56F8253098470135EEE756F8E5
:10192400253098470135F2E77C1900087C19000836
:101934007C19000880190008F8B500BFF8BC08BC81
:101944009E467047F8B500BFF8BC08BC9E46704779
:101954002E2E5C5372635C6D61696E2E6300000011
:10196400000000000000000001020304060708094B
:08197400C0E8FF7F0100000044
:04197C00E901000875
:04198000C501000895
:0C19840010000000010000000024F4002E
:04000005080018A136
:00000001FF
