:020000040800F2
:100000000000022081280008B9270008C72700083F
:10001000CD270008D3270008D927000800000000DA
:10002000000000000000000000000000DF270008C2
:10003000ED27000800000000FB2700080928000841
:10004000D1280008D1280008D1280008D1280008AC
:10005000D1280008D1280008D1280008D12800089C
:10006000D1280008D1280008D1280008D12800088C
:10007000D1280008D1280008D1280008D12800087C
:10008000D1280008D1280008D1280008D12800086C
:10009000D1280008D1280008D1280008D12800085C
:1000A000D1280008D1280008D1280008D12800084C
:1000B000D1280008D1280008D1280008D12800083C
:1000C000D1280008D1280008D1280008D12800082C
:1000D000D1280008D1280008D1280008D12800081C
:1000E000D1280008D1280008D1280008D12800080C
:1000F000D1280008D1280008D1280008D1280008FC
:10010000D1280008D1280008D1280008D1280008EB
:10011000D1280008D1280008D1280008D1280008DB
:10012000D1280008D1280008D1280008D1280008CB
:10013000D12800080000000000000000D1280008BD
:10014000D1280008D1280008D1280008D1280008AB
:10015000D1280008D1280008D1280008D12800089B
:10016000D1280008D1280008D1280008D12800088B
:10017000D1280008D1280008D1280008000000007C
:1001800000000000D128000800000000000000006E
:10019000D12800080000000000000000D12800085D
:1001A000000000000000000000000000D12800084E
:1001B000D1280008D1280008D1280008D12800083B
:0401C000D12800083A
:1001C40010B5054C237833B9044B13B10448AFF38D
:1001D40000800123237010BD0C00002000000000EB
:1001E4002C29000808B5034B1BB103490348AFF39E
:1001F400008008BD00000000100000202C29000829
:10020400034613F8012B002AFBD1181A0138704752
:1002140053B94AB9002908BF00281CBF4FF0FF3169
:100224004FF0FF3000F07AB9ADF1080C6DE904CE5F
:1002340000F006F8DDF804E0DDE9022304B07047BD
:100244002DE9F0478C460D460446089E002B51D1FB
:100254008A4217466DD9B2FA82FEBEF1000F0BD066
:10026400CEF1200C01FA0EF520FA0CFC02FA0EF77E
:100274004CEA050C00FA0EF44FEA174A250CBCFBB5
:10028400FAF81FFA87F90AFB18CC45EA0C4508FB73
:1002940009F3AB420AD9ED1908F1FF3280F023814A
:1002A400AB4240F22081A8F102083D44ED1AA4B209
:1002B400B5FBFAF00AFB105544EA054400FB09F9C2
:1002C400A14509D9E41900F1FF3380F00A81A14561
:1002D40040F2078102383C44A4EB090440EA084098
:1002E4000021002E61D024FA0EF4002334607360E0
:1002F400BDE8F0878B4207D9002E54D0002186E850
:1003040021000846BDE8F087B3FA83F1002940F0E4
:100314008E80AB4202D3824200F2FA80841A65EBEB
:1003240003050120AC46002E3FD086E81010BDE83E
:10033400F08712B90127B7FBF2F7B7FA87FEBEF1CF
:10034400000F34D1EB1B3A0C1FFA87FC0121B3FBDD
:10035400F2F8250C02FB183345EA03450CFB08F3BD
:10036400AB4207D9ED1908F1FF3002D2AB4200F2DB
:10037400D1808046ED1AA3B2B5FBF2F002FB105512
:1003840043EA05440CFB00FCA44507D9E41900F139
:10039400FF3302D2A44500F2B8801846A4EB0C0443
:1003A40040EA08409DE731463046BDE8F087CEF18B
:1003B400200405FA0EF307FA0EF720FA04F83A0CB3
:1003C40025FA04F448EA0308B4FBF2F14FEA1845AD
:1003D40002FB11441FFA87FC45EA044501FB0CF3B8
:1003E400AB4200FA0EF409D9ED1901F1FF3080F0A7
:1003F4008A80AB4240F2878002393D44EB1A1FFAEF
:1004040088F5B3FBF2F002FB103345EA034500FB29
:100414000CF3AB4207D9ED1900F1FF386FD2AB42B0
:100424006DD902383D44EB1A40EA01418FE7C1F12E
:10043400200722FA07F88B4005FA01F448EA03037F
:1004440020FA07FE4FEA134CFD404EEA040EB5FBBA
:10045400FCF94FEA1E440CFB19551FFA83F844EAD1
:10046400054509FB08F4AC4202FA01F200FA01FA6C
:1004740008D9ED1809F1FF3043D2AC4241D9A9F1B2
:1004840002091D442D1B1FFA8EFEB5FBFCF00CFB6C
:1004940010554EEA054400FB08F8A04507D9E418B6
:1004A40000F1FF3529D2A04527D902381C4440EA7F
:1004B4000940A4EB0804A0FB02894C45C6464D46FE
:1004C40015D312D056B1BAEB0E0364EB050404FA4B
:1004D40007F7CB401F43CC40376074600021BDE870
:1004E400F0871846F8E69046E0E6C245EAD2B8EB53
:1004F400020E69EB03050138E4E72846D7E74046D6
:1005040091E78146BEE7014678E702383C4445E777
:10051400084608E7A8F102083D442BE7704700BFEE
:1005240080B500AF0E4A0E4B1B6843F40073136092
:100534000B4A0B4B1B6843F480631360084A084B57
:100544001B6843F480731360032000F071FB0020E8
:1005540000F008F802F054F80023184680BD00BFEC
:10056400003C024080B582B000AF7860124B1A683C
:10057400124B1B7819464FF47A73B3FBF1F3B2FBB9
:10058400F3F3184600F07BFB0346002B01D0012354
:100594000EE07B680F2B0AD8002279684FF0FF30F9
:1005A40000F051FB064A7B681360002300E001233E
:1005B40018460837BD4680BD08000020040000200E
:1005C4000000002080B400AF064B1B781A46064B8F
:1005D4001B681344044A136000BFBD465DF8047BE6
:1005E400704700BF040000202800002080B400AF42
:1005F400034B1B681846BD465DF8047B704700BF7B
:100604002800002080B584B000AF78600023FB731D
:100614007B68002B01D1012333E07B681B6C002B2A
:1006240009D17B6800225A647B68002283F83C204D
:10063400786802F00DF87B681B6C03F01003002B44
:1006440018D17B681B6C23F4885323F0020343F016
:1006540002027B681A64786800F040F97B68002223
:100664005A647B681B6C23F0030343F001027B682C
:100674001A6401E00123FB737B68002283F83C20A9
:10068400FB7B18461037BD4680BD000090B484B093
:1006940000AF786039600023BB607B6893F83C301E
:1006A400012B01D1022309E17B68012283F83C205C
:1006B4003B681B68092B26D97B681A687B681B6812
:1006C400D9683B681B689BB2184603465B00034429
:1006D4001E3B072000FA03F3DB430B40D3607B6827
:1006E4001A687B681B68D9683B6898683B681B6814
:1006F4009BB21C4623465B0023441E3B00FA03F3D3
:100704000B43D36023E07B681A687B681B68196914
:100714003B681B689BB2184603465B0003440720F2
:1007240000FA03F3DB430B4013617B681A687B68B0
:100734001B6819693B6898683B681B689BB21C4638
:1007440023465B00234400FA03F30B4313613B6825
:100754005B68062B24D87B6819687B681B68586B18
:100764003B685A6813469B001344053B1F2202FA58
:1007740003F3DB4303404B637B6819687B681B68A6
:10078400586B3B681B689BB21C463B685A6813460F
:100794009B001344053B04FA03F303434B634CE00F
:1007A4003B685B680C2B24D87B6819687B681B68E2
:1007B400186B3B685A6813469B001344233B1F2263
:1007C40002FA03F3DB4303400B637B6819687B681D
:1007D4001B68186B3B681B689BB21C463B685A68D5
:1007E40013469B001344233B04FA03F303430B63B4
:1007F40023E07B6819687B681B68D86A3B685A6881
:1008040013469B001344413B1F2202FA03F3DB43CC
:100814000340CB627B6819687B681B68D86A3B68B5
:100824001B689BB21C463B685A6813469B001344E2
:10083400413B04FA03F30343CB62234BFB607B6825
:100844001B68224A934209D13B681B68122B05D1CD
:10085400FB685B6843F48002FB685A607B681B6832
:100864001A4A934225D13B681B68194A934203D024
:100874003B681B68112B1CD1FB685B6843F40002C6
:10088400FB685A603B681B68114A934211D1114BB3
:100894001B68114AA2FB03239A0C13469B001344C2
:1008A4005B00BB6002E0BB68013BBB60BB68002B24
:1008B400F9D17B68002283F83C20002318461037C6
:1008C400BD4690BC704700BF00230140002001409A
:1008D400120000100800002083DE1B4380B485B0A2
:1008E40000AF7860784BFB60FB685B6823F44032B0
:1008F400FB685A60FB685A687B685B681A43FB684C
:100904005A607B681B687A681268526822F48072A5
:100914005A607B681B687A68126851687A68126941
:1009240012020A435A607B681B687A68126852682C
:1009340022F040725A607B681B687A6812685168BA
:100944007A6892680A435A607B681B687A681268FE
:10095400926822F400629A607B681B687A68126865
:1009640091687A68D2680A439A607B689B6A574A9E
:10097400934222D07B681B687A681268926822F0DE
:1009840070629A607B681B687A68126891687A68FA
:10099400926A0A439A607B681B687A681268926854
:1009A40022F040529A607B681B687A6812689168EA
:1009B4007A68D26A0A439A600FE07B681B687A6897
:1009C4001268926822F070629A607B681B687A6889
:1009D4001268926822F040529A607B681B687A68B9
:1009E4001268926822F002029A607B681B687A6837
:1009F400126891687A68926952000A439A607B6827
:100A04001B6A002B1BD07B681B687A6812685268CB
:100A140042F400625A607B681B687A681268526804
:100A240022F460425A607B681B687A6812685168D5
:100A34007A68526A013A52030A435A6007E07B68B3
:100A44001B687A681268526822F400625A607B68F4
:100A54001B687A681268D26A22F47002DA627B68D0
:100A64001B687A681268D16A7A68D269013A1205F9
:100A74000A43DA627B681B687A681268926822F417
:100A840000729A607B681B687A68126891687A6859
:100A9400126B52020A439A607B681B687A68126878
:100AA400926822F480629A607B681B687A68126894
:100AB40091687A68526992020A439A6000BF1437B7
:100AC400BD465DF8047B7047002301400100000F20
:100AD40080B485B000AF78607B6803F00703FB60E7
:100AE4000C4BDB68BB60BA684FF6FF031340BB6076
:100AF400FB681A02BB68134343F0BF6343F400333B
:100B0400BB60044ABB68D36000BF1437BD465DF8C0
:100B1400047B704700ED00E080B400AF044BDB6859
:100B24001B0A03F007031846BD465DF8047B7047B3
:100B340000ED00E080B483B000AF03463960FB7180
:100B440097F90730002B0BDA0D49FB7903F00F03FB
:100B5400043B3A68D2B21201D2B20B441A7609E0CD
:100B6400084997F907303A68D2B21201D2B20B445D
:100B740083F8002300BF0C37BD465DF8047B704743
:100B840000ED00E000E100E080B489B000AFF8605F
:100B9400B9607A60FB6803F00703FB61FB69C3F18A
:100BA4000703042B28BF0423BB61FB690433062B12
:100BB40002D9FB69033B00E000237B610122BB698E
:100BC40002FA03F35A1EBB681A407B699A4001215A
:100BD4007B6901FA03F3591E7B680B4013431846E3
:100BE4002437BD465DF8047B7047000080B582B0B1
:100BF40000AF78607B68013BB3F1807F01D30123B0
:100C04000FE00A4A7B68013B53600F214FF0FF302D
:100C1400FFF790FF054B00229A60044B07221A60ED
:100C2400002318460837BD4680BD00BF10E000E031
:100C340080B582B000AF78607868FFF749FF00BFE5
:100C44000837BD4680BD80B586B000AF0346B960A5
:100C54007A60FB7300237B61FFF75EFF78617A683B
:100C6400B9687869FFF790FF024697F90F3011468B
:100C74001846FFF75FFF00BF1837BD4680BD80B53B
:100C840082B000AF78607868FFF7B0FF034618467B
:100C94000837BD4680BD000080B489B000AF7860DD
:100CA400396000237B6100233B610023BB61002387
:100CB400FB6165E10122FB6902FA03F37B613B6896
:100CC4001A687B6913403B613A697B699A4240F038
:100CD40054813B685B68022B03D03B685B68122B32
:100CE40023D1FB69DA087B68083253F82230BB61F0
:100CF400FB6903F007039B000F2202FA03F3DB43B3
:100D0400BA691340BB613B681A69FB6903F00703C6
:100D14009B0002FA03F3BA691343BB61FB69DA0867
:100D24007B680832B96943F822107B681B68BB6191
:100D3400FB695B00032202FA03F3DB43BA69134045
:100D4400BB613B685B6803F00302FB695B0002FA6A
:100D540003F3BA691343BB617B68BA691A603B68E1
:100D64005B68012B0BD03B685B68022B07D03B68A8
:100D74005B68112B03D03B685B68122B30D17B6816
:100D84009B68BB61FB695B00032202FA03F3DB434C
:100D9400BA691340BB613B68DA68FB695B0002FA1D
:100DA40003F3BA691343BB617B68BA699A607B68D1
:100DB4005B68BB610122FB6902FA03F3DB43BA6996
:100DC4001340BB613B685B681B0903F00102FB69CC
:100DD40002FA03F3BA691343BB617B68BA695A60C8
:100DE4007B68DB68BB61FB695B00032202FA03F3E7
:100DF400DB43BA691340BB613B689A68FB695B00DB
:100E040002FA03F3BA691343BB617B68BA69DA6017
:100E14003B685B6803F08053002B00F0AE80002336
:100E2400FB605C4A5B4B5B6C43F480435364594BFB
:100E34005B6C03F48043FB60FB68574AFB699B08C7
:100E4400023352F82330BB61FB6903F003039B00B8
:100E54000F2202FA03F3DB43BA691340BB617B68D8
:100E64004E4A934225D07B684D4A93421FD07B68FB
:100E74004C4A934219D07B684B4A934213D07B6807
:100E84004A4A93420DD07B68494A934207D07B6813
:100E9400484A934201D106230CE007230AE00523C4
:100EA40008E0042306E0032304E0022302E0012314
:100EB40000E00023FA6902F0030292009340BA6949
:100EC4001343BB613449FB699B080233BA6941F897
:100ED4002320394B1B68BB613B69DB43BA69134070
:100EE400BB613B685B6803F48033002B03D0BA69B1
:100EF4003B691343BB61304ABB6913602E4B5B688B
:100F0400BB613B69DB43BA691340BB613B685B6807
:100F140003F40033002B03D0BA693B691343BB616C
:100F2400254ABB695360244B9B68BB613B69DB4327
:100F3400BA691340BB613B685B6803F48013002B00
:100F440003D0BA693B691343BB611B4ABB69936015
:100F5400194BDB68BB613B69DB43BA691340BB6176
:100F64003B685B6803F40013002B03D0BA693B6948
:100F74001343BB61104ABB69D360FB690133FB6156
:100F8400FB690F2B7FF696AE00BF2437BD465DF894
:100F9400047B7047003802400038014000000240E2
:100FA4000004024000080240000C0240001002400D
:100FB4000014024000180240003C014080B483B099
:100FC40000AF78600B467B8013467B707B78002BE8
:100FD40003D07A887B689A6103E07B881A047B6873
:100FE4009A6100BF0C37BD465DF8047B7047000072
:100FF40080B584B000AF78600023FB600023BB6041
:101004007B68002B01D10123C8E07B6893F83D3055
:10101400DBB2002B06D17B68002283F83C20786881
:1010240001F038FB7B68242283F83D207B681B6831
:101034007A681268126822F001021A6000F0A6F9B8
:10104400B860BB68574AA2FB03239B0CFB607B6818
:101054001B68FA685A607B681A687B685B68524947
:101064008B4202D8FB68013309E0FB684FF49671A8
:1010740001FB03F34D49A1FB03139B0901331362E5
:101084007B6819687B685B68474A934212D87B681F
:101094005B685B00BA68B2FBF3F3C3F30B03032B87
:1010A40006D97B685B685B00BA68B2FBF3F345E082
:1010B400042343E07B689B68002B0FD17B685A684C
:1010C40013465B001344BA68B2FBF3F3C3F30B0398
:1010D400002B0CBF01230023DBB210E07B685A68AD
:1010E40013469B0013449A001344BA68B2FBF3F30B
:1010F400C3F30B03002B0CBF01230023DBB2002B33
:1011040001D001231AE07B689B68002B0AD17B681D
:101114005A6813465B001344BA68B2FBF3F343F412
:1011240000430BE07B685A6813469B0013449A0003
:101134001344BA68B2FBF3F343F44043CB617B68D6
:101144001B687A68D1697A68126A0A431A607B68F4
:101154001B687A6811697A68D2680A439A607B6866
:101164001B687A6851697A6892690A43DA607B6815
:101174001B687A681268126842F001021A607B6880
:1011840000221A647B68202283F83D207B680022B9
:101194001A637B68002283F83E2000231846103728
:1011A400BD4680BD83DE1B43A0860100D34D621083
:1011B40080B584B000AF786039607B68002B01D1C2
:1011C4000123CAE0674B1B6803F00F023B689A4295
:1011D4000CD2644B3A68D2B21A70624B1B6803F0AB
:1011E4000F023B689A4201D00123B6E07B681B687A
:1011F40003F00203002B20D07B681B6803F0040378
:10120400002B05D0584A584B9B6843F4E053936035
:101214007B681B6803F00803002B05D0524A524B2D
:101224009B6843F4604393604F494F4B9B6823F0A2
:10123400F0027B689B6813438B607B681B6803F038
:101244000103002B44D07B685B68012B07D1464B1C
:101254001B6803F40033002B19D101237DE07B6864
:101264005B68022B03D07B685B68032B07D13E4B82
:101274001B6803F00073002B09D101236DE03A4B86
:101284001B6803F00203002B01D1012365E03649FA
:10129400354B9B6823F003027B685B6813438B60C8
:1012A400FFF7A4F9F8600AE0FFF7A0F90246FB682B
:1012B400D31A41F28832934201D903234DE02A4BD9
:1012C4009B6803F00C027B685B689B009A42EBD13D
:1012D400244B1B6803F00F023B689A420CD9214B44
:1012E4003A68D2B21A701F4B1B6803F00F023B68B6
:1012F4009A4201D0012330E07B681B6803F00403A9
:10130400002B08D01849184B9B6823F4E0527B68E3
:10131400DB6813438B607B681B6803F00803002BB6
:1013240009D01149104B9B6823F460427B681B6908
:10133400DB0013438B6000F051F801460A4B9B68B5
:101344001B0903F00F03094AD35C21FA03F3084A8B
:1013540013600020FFF706F9002318461037BD4636
:1013640080BD00BF003C0240003802404C29000808
:101374000800002080B400AF034B1B681846BD462C
:101384005DF8047B704700BF0800002080B500AF03
:10139400FFF7F0FF0146054B9B689B0A03F0070328
:1013A400034AD35C21FA03F3184680BD0038024097
:1013B4005C29000880B500AFFFF7DCFF0146054B50
:1013C4009B685B0B03F00703034AD35C21FA03F326
:1013D400184680BD003802405C2900082DE9F04F12
:1013E400A1B000AF00237B670023FB6700233B67AA
:1013F4000023FB660023BB67A04B9B6803F00C0330
:101404000C2B00F2938101A252F823F0451400083A
:101414003117000831170008311700084B14000871
:10142400311700083117000831170008511400085B
:10143400311700083117000831170008CD150008CE
:101444008F4BBB6775E18F4BBB6772E18B4B5B685E
:1014540003F03F037B67894B5B6803F48003002B35
:1014640056D0864B5B689B094FF0000440F2FF1195
:101474004FF0000201EA030102EA04020B4614469B
:1014840060017866786E40EAD36078665B013B66FB
:10149400D7E918345B1A64EB0204A001F865F86D0F
:1014A40040EA9360F8659801B865D7E91656ED1AD5
:1014B40066EB04063346DB007B657B6D284643EA16
:1014C40050737B652B46DB003B65D7E914341D461E
:1014D40026466B1846EB0204184621460B465B026F
:1014E400FB64FB6C024643EAD253FB6403465B0293
:1014F400BB64D7E91234184621467B6F4FF00004D1
:101504001A462346FEF784FE03460C46FB674DE06D
:101514005A4B5B689B094FF0000440F2FF114FF0F7
:10152400000201EA030102EA04020B4614466001C8
:101534007864786C40EAD36078645B013B64D7E9F3
:1015440010345B1A64EB02044FEA841B4BEA936B7E
:101554004FEA831ABAEB030A6BEB040B4FEACB0393
:10156400FB63FB6B43EA5A73FB634FEACA03BB6337
:10157400D7E90EAB1AEB010A4BEB020B4FEA8B23B4
:101584007B637B6B43EA9A537B634FEA8A233B6317
:10159400D7E90CAB504659467B6F4FF000041A460E
:1015A4002346FEF735FE03460C46FB67334B5B6868
:1015B4001B0C03F0030301335B003B67FA6F3B6FC3
:1015C400B2FBF3F3BB67B4E02C4B5B6803F03F035F
:1015D4007B672A4B5B6803F48003002B54D0274BB2
:1015E4005B689B094FF0000440F2FF114FF00002CA
:1015F40001EA030102EA04020B4614466001F862A0
:10160400F86A40EAD360F8625B01BB62D7E90A3446
:101614005B1A64EB02044FEA841949EA93694FEABE
:101624008318B8EB030869EB04094FEAC9037B622A
:101634007B6A43EA58737B624FEAC8033B62D7E98B
:10164400088918EB010849EB02094FEA4923FB61B9
:10165400FB6943EAD853FB614FEA4823BB61D7E9EE
:101664000689404649467B6F4FF000041A462346DC
:10167400FEF7CEFD03460C46FB674BE00038024004
:101684000024F40000127A002D4B5B689B094FF094
:10169400000440F2FF114FF0000201EA030102EAE4
:1016A40004020B46144660017861786940EAD3600D
:1016B40078615B013B61D7E904345B1A64EB020493
:1016C400A60146EA93669D01ED1A66EB0406F30053
:1016D400FB60FB6843EA5573FB60EB00BB60D7E932
:1016E40002566D1846EB0206B3027B607B6843EA40
:1016F40095537B60AB023B6097E860002846314617
:101704007B6F4FF000041A462346FEF781FD034623
:101714000C46FB670A4B5B681B0F03F00703FB6671
:10172400FA6FFB6EB2FBF3F3BB6702E0054BBB67DA
:1017340000BFBB6F18468437BD46BDE8F08F00BFBD
:10174400003802400024F40080B586B000AF786011
:1017540000233B617B681B6803F00103002B00F04E
:101764008380954B9B6803F00C03042B19D0924B98
:101774009B6803F00C03082B06D18F4B5B6803F4C2
:101784008003B3F5800F0CD08B4B9B6803F00C03E4
:101794000C2B12D1884B5B6803F48003B3F5800FE4
:1017A4000BD1854B1B6803F40033002B5BD07B68A3
:1017B4005B68002B57D1012316E27B685B68B3F5A5
:1017C400803F06D17C4A7C4B1B6843F48033136012
:1017D4001DE07B685B68B3F5A02F0CD1764A764B8D
:1017E4001B6843F480231360734A734B1B6843F4F0
:1017F400803313600BE0704A6F4B1B6823F4803313
:1018040013606D4A6C4B1B6823F4802313607B6860
:101814005B68002B13D0FEF7E9FE386108E0FEF7A1
:10182400E5FE02463B69D31A642B01D90323DBE1AD
:10183400614B1B6803F40033002BF0D014E0FEF777
:10184400D5FE386108E0FEF7D1FE02463B69D31AA3
:10185400642B01D90323C7E1574B1B6803F40033FE
:10186400002BF0D100E000BF7B681B6803F002038B
:10187400002B6FD0504B9B6803F00C03002B17D048
:101884004D4B9B6803F00C03082B05D14A4B5B6856
:1018940003F48003002B0BD0474B9B6803F00C032D
:1018A4000C2B1CD1444B5B6803F48003002B16D132
:1018B400414B1B6803F00203002B05D07B68DB68F7
:1018C400012B01D001238FE13B493B4B1B6823F0E3
:1018D400F8027B681B69DB0013430B603AE07B680A
:1018E400DB68002B20D0354B01221A60FEF77EFE08
:1018F400386108E0FEF77AFE02463B69D31A022BF0
:1019040001D9032370E12C4B1B6803F00203002B65
:10191400F0D02949284B1B6823F0F8027B681B6927
:10192400DB0013430B6015E0244B00221A60FEF722
:101934005DFE386108E0FEF759FE02463B69D31AA2
:10194400022B01D903234FE11B4B1B6803F0020355
:10195400002BF0D17B681B6803F00803002B37D001
:101964007B685B69002B16D0154B01221A60FEF7C9
:101974003DFE386108E0FEF739FE02463B69D31AA2
:10198400022B01D903232FE10B4B5B6F03F00203FE
:10199400002BF0D01CE00A4B00221A60FEF726FE52
:1019A40038610FE0FEF722FE02463B69D31A022B90
:1019B40008D9032318E100BF003802400000474261
:1019C400800E47428A4B5B6F03F00203002BE9D180
:1019D4007B681B6803F00403002B00F0978000234E
:1019E400FB75834B1B6C03F08053002B0FD100233A
:1019F400FB607F4A7E4B1B6C43F0805313647C4B2B
:101A04001B6C03F08053FB60FB680123FB75794B6F
:101A14001B6803F48073002B18D1764A754B1B683E
:101A240043F480731360FEF7E1FD386108E0FEF7CC
:101A3400DDFD02463B69D31A022B01D90323D3E00F
:101A44006C4B1B6803F48073002BF0D07B689B689D
:101A5400012B06D1664A664B1B6F43F001031367E3
:101A64001CE07B689B68052B0CD1614A604B1B6FA3
:101A740043F0040313675E4A5D4B1B6F43F001039D
:101A840013670BE05A4A5A4B1B6F23F00103136789
:101A9400574A574B1B6F23F0040313677B689B68FB
:101AA400002B15D0FEF7A2FD38610AE0FEF79EFD7B
:101AB40002463B69D31A41F28832934201D9032387
:101AC40092E04B4B1B6F03F00203002BEED014E0AB
:101AD400FEF78CFD38610AE0FEF788FD02463B699B
:101AE400D31A41F28832934201D903237CE0404B5C
:101AF4001B6F03F00203002BEED1FB7D012B05D1FC
:101B04003B4A3B4B1B6C23F0805313647B689B69FB
:101B1400002B68D0364B9B6803F00C03082B60D075
:101B24007B689B69022B45D1334B00221A60FEF778
:101B34005DFD386108E0FEF759FD02463B69D31AA2
:101B4400022B01D903234FE0294B1B6803F00073D8
:101B5400002BF0D126497B68DA697B681B6A1A433B
:101B64007B685B6A9B011A437B689B6A5B08013B49
:101B74001B041A437B68DB6A1B061A437B681B6BD6
:101B84001B0713434B601C4B01221A60FEF72EFD0A
:101B9400386108E0FEF72AFD02463B69D31A022B9E
:101BA40001D9032320E0124B1B6803F00073002BC0
:101BB400F0D018E0104B00221A60FEF717FD3861D0
:101BC40008E0FEF713FD02463B69D31A022B01D944
:101BD400032309E0064B1B6803F00073002BF0D1CC
:101BE40001E0012300E0002318461837BD4680BDFC
:101BF40000380240007000406000474280B582B067
:101C040000AF78607B68002B01D101233FE07B6843
:101C140093F83930DBB2002B06D17B68002283F8BD
:101C24003820786800F07EFD7B68242283F8392010
:101C34007B681B687A681268D26822F40052DA6002
:101C4400786800F00BF97B681B687A68126812697F
:101C540022F490421A617B681B687A6812685269A0
:101C640022F02A025A617B681B687A681268D2687B
:101C740042F40052DA607B680022DA637B68202237
:101C840083F839207B68202283F83A200023184601
:101C94000837BD4680BD80B588B002AFF860B96032
:101CA4003B601346FB8000237B61FB6893F839306B
:101CB400DBB2202B40F08280BB68002B02D0FB8873
:101CC400002B01D101237AE0FB6893F83830012B13
:101CD40001D1022373E0FB68012283F83820FB68FA
:101CE4000022DA63FB68212283F83920FEF77EFCA8
:101CF4007861FB68FA889A84FB68FA88DA8441E0A0
:101D0400FB68DB8C9BB2013B9AB2FB68DA84FB680C
:101D14009B68B3F5805F21D13B6800937B69002207
:101D24008021F86800F04FF80346002B01D003230C
:101D340045E0BB683B61FB681B683A691288C2F3E3
:101D440008025A60FB681B69002B03D1BB6802338D
:101D5400BB6017E0BB680133BB6013E03B680093D2
:101D64007B6900228021F86800F02DF80346002BDF
:101D740001D0032323E0FB681A68BB68591CB960CF
:101D84001B785360FB68DB8C9BB2002BB8D13B689B
:101D940000937B6900224021F86800F014F80346A0
:101DA400002B01D003230AE0FB68202283F83920AA
:101DB400FB68002283F83820002300E00223184641
:101DC4001837BD4680BD80B584B000AFF860B960F7
:101DD4003B601346FB712CE0BB69B3F1FF3F28D095
:101DE400BB69002B07D0FEF701FC02463B68D21A00
:101DF400BB699A421DD9FB681B68FA681268D268ED
:101E040022F4D072DA60FB681B68FA6812685269BF
:101E140022F001025A61FB68202283F83920FB6812
:101E2400202283F83A20FB68002283F83820032319
:101E34000FE0FB681B681A68BB681A40BB689A42CB
:101E44000CBF01230023DBB21A46FB799A42C3D0AC
:101E5400002318461037BD4680BD0000F0B585B09C
:101E640000AF78600023FB607B681B681B69FB6024
:101E7400FB6823F44053FB607B68DB68FA68134318
:101E8400FB607B681B68FA681A617B681B68DB6807
:101E9400FB60FB6823F4164323F00C03FB607B68B0
:101EA4009A687B681B691A437B685B691A437B6881
:101EB400DB691343FA681343FB607B681B68FA68A9
:101EC400DA607B681B685B69FB60FB6823F4407322
:101ED400FB607B689B69FA681343FB607B681B6843
:101EE400FA685A617B68DB69B3F5004F40F0E4801F
:101EF4007B681B68AB4A934204D07B681B68AA4A80
:101F040093426CD17B681C68FFF754FA024613466F
:101F14009B0013449A001A447B685B685B00B2FB25
:101F2400F3F3A24AA2FB03235B091D01FFF742FA64
:101F3400024613469B0013449A001A447B685B686C
:101F44005B00B2FBF3F6FFF735FA024613469B003B
:101F540013449A001A447B685B685B00B2FBF3F39A
:101F6400924AA2FB03235B09642202FB03F3F31AE4
:101F7400DB0032338D4AA2FB03235B095B0003F4CD
:101F8400F8731D44FFF716FA024613469B001344E8
:101F94009A001A447B685B685B00B2FBF3F6FFF7B8
:101FA40009FA024613469B0013449A001A447B68BC
:101FB4005B685B00B2FBF3F37C4AA2FB03235B097F
:101FC400642202FB03F3F31ADB003233774AA2FBE9
:101FD40003235B0903F007032B44A36054E17B68EC
:101FE4001C68FFF7D3F9024613469B0013449A007A
:101FF4001A447B685B685B00B2FBF3F36B4AA2FB99
:1020040003235B091D01FFF7C1F9024613469B0038
:1020140013449A001A447B685B685B00B2FBF3F6D6
:10202400FFF7B4F9024613469B0013449A001A447E
:102034007B685B685B00B2FBF3F35C4AA2FB03239F
:102044005B09642202FB03F3F31ADB003233574AC1
:10205400A2FB03235B095B0003F4F8731D44FFF741
:1020640095F9024613469B0013449A001A447B6870
:102074005B685B00B2FBF3F6FFF788F90246134690
:102084009B0013449A001A447B685B685B00B2FBB4
:10209400F3F3464AA2FB03235B09642202FB03F326
:1020A400F31ADB003233414AA2FB03235B0903F03A
:1020B40007032B44A360E7E07B681B68394A93421B
:1020C40004D07B681B68384A934271D17B681C68D2
:1020D400FFF770F9024613469B0013449A001A4412
:1020E4007B685B689B00B2FBF3F3304AA2FB0323DB
:1020F4005B091D01FFF75EF9024613469B0013447A
:102104009A001A447B685B689B00B2FBF3F6FFF706
:1021140051F9024613469B0013449A001A447B6803
:102124005B689B00B2FBF3F3204AA2FB03235B0929
:10213400642202FB03F3F31A1B0132331B4AA2FB92
:1021440003235B0903F0F0031D44FFF733F9024650
:1021540013469B0013449A001A447B685B689B00F7
:10216400B2FBF3F6FFF726F9024613469B0013442D
:102174009A001A447B685B689B00B2FBF3F30B4A3A
:10218400A2FB03235B09642202FB03F3F31A1B0182
:102194003233064AA2FB03235B0903F00F032B44EB
:1021A400A36071E000100140001401401F85EB5151
:1021B4007B681C68FFF7EAF8024613469B00134449
:1021C4009A001A447B685B689B00B2FBF3F3304AC5
:1021D400A2FB03235B091D01FFF7D8F8024613464F
:1021E4009B0013449A001A447B685B689B00B2FB13
:1021F400F3F6FFF7CBF8024613469B0013449A000C
:102204001A447B685B689B00B2FBF3F3204AA2FB91
:1022140003235B09642202FB03F3F31A1B01323329
:102224001B4AA2FB03235B0903F0F0031D44FFF7E1
:10223400ADF8024613469B0013449A001A447B6887
:102244005B689B00B2FBF3F6FFF7A0F80246134667
:102254009B0013449A001A447B685B689B00B2FBA2
:10226400F3F30B4AA2FB03235B09642202FB03F38F
:10227400F31A1B013233064AA2FB03235B0903F062
:102284000F032B44A360FFE700BF1437BD46F0BD26
:102294001F85EB5180B582B000AFFEF741F900F025
:1022A4001FF800F035F900F009F900F087F800F0A4
:1022B400D7F8094A3B4692E80300186004331980B2
:1022C4003B461846FDF79CFF03469AB23946052360
:1022D4000248FFF7E0FCECE744290008C8000020AE
:1022E40080B594B000AF07F11C03342200211846D6
:1022F40000F012FB07F1080300221A605A609A608A
:10230400DA601A6100237B602A4A2A4B1B6C43F073
:1023140080531364274B1B6C03F080537B607B68F2
:1023240000233B60244A244B1B6823F4404343F4BA
:1023340080431360204B1B6803F440433B603B68BD
:102344000223FB610123BB621023FB6202237B6334
:102354000023BB631023FB634FF4A8733B64042383
:102364007B640223BB640223FB6407F11C0318464D
:10237400FFF7EAF90346002B01D000F039F90F23E7
:10238400BB600223FB6000233B614FF480537B61FD
:102394000023BB6107F1080302211846FEF708FF7A
:1023A4000346002B01D000F023F900BF5037BD468F
:1023B40080BD00BF003802400070004080B584B08A
:1023C40000AF3B4600221A605A609A60DA60204BE4
:1023D400204A1A601E4B4FF440325A601C4B0022B4
:1023E4009A601B4B00221A61194B01229A61184B07
:1023F40000221A62164B0022DA62154B164A9A62C0
:10240400134B0022DA60124B0122DA61104B0022D6
:102414001A630F4B01225A610D48FEF7F3F8034685
:10242400002B01D000F0E4F80C4B3B6001237B60EF
:102434000023BB603B4619460548FEF727F90346CF
:10244400002B01D000F0D4F800BF1037BD4680BD8A
:1024540080000020002001400100000F1200001045
:1024640080B500AF124B134A1A60114B124A5A60DE
:102474000F4B00229A600E4B0022DA600C4B4FF493
:1024840080421A610A4B00225A61094B00229A6168
:10249400074B0022DA61064B00221A620448FEF759
:1024A400A7FD0346002B01D000F0A2F800BF80BDB9
:1024B4002C00002000540040A086010080B500AF2D
:1024C400114B124A1A60104B4FF4E1325A600E4B12
:1024D40000229A600C4B0022DA600B4B00221A6136
:1024E400094B0C225A61084B00229A61064B0022C8
:1024F400DA610548FFF782FB0346002B01D000F0A8
:1025040077F800BF80BD00BFC80000200044004031
:1025140080B58AB000AF07F1140300221A605A6034
:102524009A60DA601A6100233B612D4A2C4B1B6BC5
:1025340043F0040313632A4B1B6B03F004033B6156
:102544003B690023FB60264A254B1B6B43F0800349
:102554001363234B1B6B03F08003FB60FB680023B6
:10256400BB601F4A1E4B1B6B43F0010313631C4BE0
:102574001B6B03F00103BB60BB6800237B60184A3C
:10258400174B1B6B43F002031363154B1B6B03F0D8
:1025940002037B607B68002221211248FEF70EFDB6
:1025A4004FF400537B61104BBB610023FB6107F1C7
:1025B400140319460D48FEF76FFB21237B610123A9
:1025C400BB610023FB6100233B6207F1140319463E
:1025D4000448FEF761FB00BF2837BD4680BD00BF3D
:1025E40000380240000002400000211000080240B0
:1025F40080B400AF00BFBD465DF8047B70470000A7
:1026040080B582B000AF00237B60104A0F4B5B6C37
:1026140043F4804353640D4B5B6C03F480437B6051
:102624007B6800233B60094A084B1B6C43F08053D2
:102634001364064B1B6C03F080533B603B6807201C
:10264400FEF7F6FA00BF0837BD4680BD00380240E9
:1026540080B485B000AF78607B681B680B4A9342F6
:102664000DD10023FB600A4A094B5B6C43F4807371
:102674005364074B5B6C03F48073FB60FB6800BF1F
:102684001437BD465DF8047B704700BF002001404D
:102694000038024080B58AB000AF786007F11403B7
:1026A40000221A605A609A60DA601A617B681B68BB
:1026B400194A93422BD100233B61184A174B1B6BD9
:1026C40043F002031363154B1B6B03F002033B61DE
:1026D4003B69C0237B611223BB610123FB6103239C
:1026E4003B6204237B6207F1140319460C48FEF78E
:1026F400D3FA0023FB60094A084B1B6C43F4001314
:102704001364064B1B6C03F40013FB60FB6800BFEF
:102714002837BD4680BD00BF005400400038024049
:102724000004024080B58AB000AF786007F114035A
:1027340000221A605A609A60DA601A617B681B682A
:10274400194A93422BD100233B61184A174B1B6C47
:1027540043F400331364154B1B6C03F400333B61E7
:102764003B690023FB60114A104B1B6B43F00103D0
:1027740013630E4B1B6B03F00103FB60FB680C231C
:102784007B610223BB610123FB6103233B620723BB
:102794007B6207F1140319460548FEF77DFA00BF72
:1027A4002837BD4680BD00BF0044004000380240C9
:1027B4000000024080B400AF00BFBD465DF8047B5A
:1027C400704780B400AFFEE780B400AFFEE780B48A
:1027D40000AFFEE780B400AFFEE780B400AF00BFF7
:1027E400BD465DF8047B704780B400AF00BFBD46B2
:1027F4005DF8047B704780B400AF00BFBD465DF850
:10280400047B704780B500AFFDF7DCFE00BF80BDE0
:1028140080B400AF164A164BD3F8883043F47003E3
:10282400C2F88830134A134B1B6843F0010313604A
:10283400104B00229A600F4A0E4B1B6823F08473DE
:1028440023F4803313600B4B0B4A5A60094A094B3B
:102854001B6823F480231360064B0022DA60044BC8
:102864004FF000629A6000BFBD465DF8047B70477C
:1028740000ED00E00038024010300024DFF834D0CE
:10288400002103E00C4B5B58435004310B480C4BC4
:1028940042189A42F6D30B4A02E0002342F8043B62
:1028A400094B9A42F9D3FFF7B3FF00F011F8FFF791
:1028B400F1FC704700000220742900080000002089
:1028C4000C0000200C00002008010020FEE700009E
:1028D40070B50D4E0D4CA41BA4100025A54209D1C2
:1028E4000B4E0C4C00F020F8A41BA4100025A542AC
:1028F40005D170BD56F8253098470135EEE756F8F6
:10290400253098470135F2E76C2900086C29000846
:102914006C2900087029000802440346934200D140
:10292400704703F8011BF9E7F8B500BFF8BC08BC11
:102934009E467047F8B500BFF8BC08BC9E46704779
:102944004142434343000000000000000000000037
:102954000102030406070809000000000102030441
:08296400E0D8FF7F0100000034
:04296C00E901000875
:04297000C501000895
:0C29740010000000010000000024F4002E
:040000050800288146
:00000001FF
